:020000040000FA
:1000000028C042C041C040C03FC03EC03DC03CC00F
:100010003BC03AC039C03FC137C036C035C034C01C
:1000200033C000003A00370000003B0038000101F7
:100030000101010101010202020201020408102073
:1000400040800402010800000000000403020100D7
:10005000000011241FBECFE5D2E0DEBFCDBF10E00F
:10006000A0E6B0E0ECE1F5E002C005900D92A2360A
:10007000B107D9F720E0A2E6B0E001C01D92A33796
:10008000B207E1F752D148C2BBCF3FB7F894809195
:100090006F0090917000A0917100B091720022B732
:1000A00008B600FE05C02F3F19F00196A11DB11D35
:1000B0003FBFBA2FA92F982F8827BC01CD01620F0F
:1000C000711D811D911D43E0660F771F881F991FC9
:1000D0004A95D1F70895CF92DF92EF92FF92CF9396
:1000E000DF936B017C01D1DFEB01CFDF6C1B7D0B5C
:1000F000683E7340A0F0C114D104E104F10439F466
:10010000DF91CF91FF90EF90DF90CF90089581E045
:10011000C81AD108E108F108C851DC4FE6CFC11474
:10012000D104E104F10409F7EBCF90E0FC01EA5BB4
:10013000FF4F3491FC01E65CFF4F2491FC01E25D2E
:10014000FF4FE491EE23B9F0332329F03130A1F4CD
:1001500080B78F7780BFF0E0EE0FFF1FE85DFF4FA5
:10016000A591B4918FB7611117C0F894EC912095C7
:100170002E232C938FBF0895323019F480B78F7DD2
:10018000E9CF333021F48FB58F778FBDE4CF343092
:1001900011F78FB58F7DF9CFF894EC912E2BE9CF25
:1001A000CF92DF92EF92FF928CE3C82ED12CE12CFC
:1001B000F12CC701B6018FDF60E084E0B6DFC70134
:1001C000B60189DF61E084E0B0DF85E0C81AD108BC
:1001D000E108F10885E0C816D104E104F10449F70B
:1001E000FF90EF90DF90CF900895CF92DF92EF9243
:1001F000FF928CE3C82ED12CE12CF12CC701B60163
:100200006ADF60E083E091DFC701B60164DF61E08F
:1002100083E08BDF85E0C81AD108E108F10885E0AA
:10022000C816D104E104F10449F7FF90EF90DF9084
:10023000CF900895CF93DF9390E0FC01E65CFF4FF1
:100240002491825D9F4FFC0184918823D1F090E03E
:10025000880F991FFC01EE5DFF4FA591B491FC0141
:10026000E85DFF4FC591D49161110EC09FB7F8941E
:100270008C91E22FE0958E238C932881E223E883F2
:100280009FBFDF91CF9108958FB7F894EC91E22B47
:10029000EC938FBFF6CF1F920F920FB60F921124DF
:1002A0002F933F938F939F93AF93BF9380916B0056
:1002B00090916C00A0916D00B0916E0030916A0039
:1002C00026E0230F2D3768F129E8230F0396A11D9F
:1002D000B11D20936A0080936B0090936C00A093F3
:1002E0006D00B0936E0080916F0090917000A091AE
:1002F0007100B09172000196A11DB11D80936F0035
:1003000090937000A0937100B0937200BF91AF9171
:100310009F918F913F912F910F900FBE0F901F9043
:1003200018950296A11DB11DD4CF83E080BF83BF75
:10033000789499B7916099BF91E09FBD8EBD86E892
:1003400086B960E080E076DF61E080E0EEDE60E0CC
:1003500081E070DF60E081E0E8DE60E082E06ADF9B
:1003600061E085E067DF61E086E064DF61E083E013
:1003700061DF61E084E05EDF90E080E0B7D090E094
:10038000009709F09FC061E090E080E0B7D081E085
:1003900090E09093630080936200C0916200D091DE
:1003A00063006C2F85E0C1DE61E0209709F060E01A
:1003B00086E0BBDECD2B09F091C0F2DE89B38170FF
:1003C000C82FD0E020916000309161002C173D07CC
:1003D00099F09FB7F89440916B0050916C00609138
:1003E0006D0070916E009FBF409366005093670050
:1003F00060936800709369009FB7F89440916B0018
:1004000050916C0060916D0070916E009FBF0091E3
:100410006600109167002091680030916900401BD0
:10042000510B620B730B433351056105710508F4E1
:1004300044C020916400309165002C173D07E9F11C
:10044000D0936500C0936400811137C000916200B1
:100450001091630061E00115110509F060E0862F3D
:1004600090E0909363008093620085E05EDE61E03F
:10047000012B09F460E086E058DED99AD19A61E058
:1004800082E0D8DE66E970E080E090E024DED1987A
:10049000D99860E082E0CEDE60E084E046DE60E095
:1004A00083E043DE8091620090916300892BC1F468
:1004B00062E090E080E022D073DED0936100C093D0
:1004C00060007CCF8130910509F463CF029709F079
:1004D00064CF10926300109262005FCF86DE6ECF11
:1004E00061E090E080E00AD080DEE7CFE199FECFC6
:1004F0009FBB8EBBE09A99278DB30895262FE19973
:10050000FECF1CBA9FBB8EBB2DBB0FB6F894E29AF0
:10051000E19A0FBE01960895F894FFCF0100FFFF06
:10052000FFFFFFFFFFFFFFFFFFFFFFFFFFFFFFFFDB
:10053000FFFFFFFFFFFFFFFFFFFFFFFFFFFFFFFFCB
:10054000FFFFFFFFFFFFFFFFFFFFFFFFFFFFFFFFBB
:10055000FFFFFFFFFFFFFFFFFFFFFFFFFFFFFFFFAB
:00000001FF
